{
  "_format": "hh-sol-artifact-1",
  "contractName": "InFocus",
  "sourceName": "contracts/InFocus.sol",
  "abi": [
    {
      "inputs": [],
      "stateMutability": "nonpayable",
      "type": "constructor"
    },
    {
      "anonymous": false,
      "inputs": [
        {
          "indexed": true,
          "internalType": "address",
          "name": "owner",
          "type": "address"
        },
        {
          "indexed": true,
          "internalType": "address",
          "name": "approved",
          "type": "address"
        },
        {
          "indexed": true,
          "internalType": "uint256",
          "name": "tokenId",
          "type": "uint256"
        }
      ],
      "name": "Approval",
      "type": "event"
    },
    {
      "anonymous": false,
      "inputs": [
        {
          "indexed": true,
          "internalType": "address",
          "name": "owner",
          "type": "address"
        },
        {
          "indexed": true,
          "internalType": "address",
          "name": "operator",
          "type": "address"
        },
        {
          "indexed": false,
          "internalType": "bool",
          "name": "approved",
          "type": "bool"
        }
      ],
      "name": "ApprovalForAll",
      "type": "event"
    },
    {
      "anonymous": false,
      "inputs": [
        {
          "indexed": true,
          "internalType": "address",
          "name": "from",
          "type": "address"
        },
        {
          "indexed": true,
          "internalType": "address",
          "name": "to",
          "type": "address"
        },
        {
          "indexed": true,
          "internalType": "uint256",
          "name": "tokenId",
          "type": "uint256"
        }
      ],
      "name": "Transfer",
      "type": "event"
    },
    {
      "inputs": [
        {
          "internalType": "uint256",
          "name": "",
          "type": "uint256"
        }
      ],
      "name": "Innovations",
      "outputs": [
        {
          "internalType": "string",
          "name": "url",
          "type": "string"
        }
      ],
      "stateMutability": "view",
      "type": "function"
    },
    {
      "inputs": [
        {
          "internalType": "address",
          "name": "to",
          "type": "address"
        },
        {
          "internalType": "uint256",
          "name": "tokenId",
          "type": "uint256"
        }
      ],
      "name": "approve",
      "outputs": [],
      "stateMutability": "nonpayable",
      "type": "function"
    },
    {
      "inputs": [
        {
          "internalType": "address",
          "name": "owner",
          "type": "address"
        }
      ],
      "name": "balanceOf",
      "outputs": [
        {
          "internalType": "uint256",
          "name": "",
          "type": "uint256"
        }
      ],
      "stateMutability": "view",
      "type": "function"
    },
    {
      "inputs": [
        {
          "internalType": "uint256",
          "name": "_id",
          "type": "uint256"
        }
      ],
      "name": "campaignDetail",
      "outputs": [
        {
          "components": [
            {
              "internalType": "uint256",
              "name": "id",
              "type": "uint256"
            },
            {
              "internalType": "string",
              "name": "url",
              "type": "string"
            },
            {
              "internalType": "string",
              "name": "campaign",
              "type": "string"
            },
            {
              "internalType": "address",
              "name": "owner",
              "type": "address"
            },
            {
              "internalType": "uint256",
              "name": "target",
              "type": "uint256"
            },
            {
              "internalType": "bool",
              "name": "isAchieved",
              "type": "bool"
            },
            {
              "internalType": "uint256",
              "name": "amtRaised",
              "type": "uint256"
            },
            {
              "internalType": "uint256",
              "name": "amtNFT",
              "type": "uint256"
            },
            {
              "internalType": "uint256",
              "name": "deadline",
              "type": "uint256"
            },
            {
              "internalType": "uint8",
              "name": "noContribution",
              "type": "uint8"
            },
            {
              "components": [
                {
                  "internalType": "address",
                  "name": "sender",
                  "type": "address"
                },
                {
                  "internalType": "string",
                  "name": "txHash",
                  "type": "string"
                },
                {
                  "internalType": "uint256",
                  "name": "amount",
                  "type": "uint256"
                }
              ],
              "internalType": "struct InFocus.Transaction[]",
              "name": "transactions",
              "type": "tuple[]"
            }
          ],
          "internalType": "struct InFocus.Campaign",
          "name": "",
          "type": "tuple"
        }
      ],
      "stateMutability": "view",
      "type": "function"
    },
    {
      "inputs": [
        {
          "internalType": "uint256",
          "name": "",
          "type": "uint256"
        }
      ],
      "name": "campaigns",
      "outputs": [
        {
          "internalType": "uint256",
          "name": "id",
          "type": "uint256"
        },
        {
          "internalType": "string",
          "name": "url",
          "type": "string"
        },
        {
          "internalType": "string",
          "name": "campaign",
          "type": "string"
        },
        {
          "internalType": "address",
          "name": "owner",
          "type": "address"
        },
        {
          "internalType": "uint256",
          "name": "target",
          "type": "uint256"
        },
        {
          "internalType": "bool",
          "name": "isAchieved",
          "type": "bool"
        },
        {
          "internalType": "uint256",
          "name": "amtRaised",
          "type": "uint256"
        },
        {
          "internalType": "uint256",
          "name": "amtNFT",
          "type": "uint256"
        },
        {
          "internalType": "uint256",
          "name": "deadline",
          "type": "uint256"
        },
        {
          "internalType": "uint8",
          "name": "noContribution",
          "type": "uint8"
        }
      ],
      "stateMutability": "view",
      "type": "function"
    },
    {
      "inputs": [
        {
          "internalType": "uint256",
          "name": "_id",
          "type": "uint256"
        }
      ],
      "name": "contribute",
      "outputs": [],
      "stateMutability": "payable",
      "type": "function"
    },
    {
      "inputs": [
        {
          "internalType": "string",
          "name": "_url",
          "type": "string"
        },
        {
          "internalType": "string",
          "name": "_name",
          "type": "string"
        },
        {
          "internalType": "uint256",
          "name": "_target",
          "type": "uint256"
        },
        {
          "internalType": "uint256",
          "name": "_amtNFT",
          "type": "uint256"
        },
        {
          "internalType": "uint256",
          "name": "_deadline",
          "type": "uint256"
        }
      ],
      "name": "createCampaign",
      "outputs": [
        {
          "internalType": "uint256",
          "name": "",
          "type": "uint256"
        }
      ],
      "stateMutability": "nonpayable",
      "type": "function"
    },
    {
      "inputs": [
        {
          "internalType": "uint256",
          "name": "tokenId",
          "type": "uint256"
        }
      ],
      "name": "getApproved",
      "outputs": [
        {
          "internalType": "address",
          "name": "",
          "type": "address"
        }
      ],
      "stateMutability": "view",
      "type": "function"
    },
    {
      "inputs": [],
      "name": "getCamp",
      "outputs": [
        {
          "internalType": "uint256",
          "name": "",
          "type": "uint256"
        }
      ],
      "stateMutability": "view",
      "type": "function"
    },
    {
      "inputs": [],
      "name": "hello",
      "outputs": [
        {
          "internalType": "string",
          "name": "",
          "type": "string"
        }
      ],
      "stateMutability": "view",
      "type": "function"
    },
    {
      "inputs": [
        {
          "internalType": "address",
          "name": "owner",
          "type": "address"
        },
        {
          "internalType": "address",
          "name": "operator",
          "type": "address"
        }
      ],
      "name": "isApprovedForAll",
      "outputs": [
        {
          "internalType": "bool",
          "name": "",
          "type": "bool"
        }
      ],
      "stateMutability": "view",
      "type": "function"
    },
    {
      "inputs": [],
      "name": "name",
      "outputs": [
        {
          "internalType": "string",
          "name": "",
          "type": "string"
        }
      ],
      "stateMutability": "view",
      "type": "function"
    },
    {
      "inputs": [],
      "name": "noCampaigns",
      "outputs": [
        {
          "internalType": "uint256",
          "name": "",
          "type": "uint256"
        }
      ],
      "stateMutability": "view",
      "type": "function"
    },
    {
      "inputs": [],
      "name": "noInnovation",
      "outputs": [
        {
          "internalType": "uint256",
          "name": "",
          "type": "uint256"
        }
      ],
      "stateMutability": "view",
      "type": "function"
    },
    {
      "inputs": [
        {
          "internalType": "uint256",
          "name": "tokenId",
          "type": "uint256"
        }
      ],
      "name": "ownerOf",
      "outputs": [
        {
          "internalType": "address",
          "name": "",
          "type": "address"
        }
      ],
      "stateMutability": "view",
      "type": "function"
    },
    {
      "inputs": [
        {
          "internalType": "uint256",
          "name": "_id",
          "type": "uint256"
        },
        {
          "internalType": "string",
          "name": "_comment",
          "type": "string"
        }
      ],
      "name": "postComment",
      "outputs": [],
      "stateMutability": "nonpayable",
      "type": "function"
    },
    {
      "inputs": [
        {
          "internalType": "string",
          "name": "_url",
          "type": "string"
        }
      ],
      "name": "postInnovation",
      "outputs": [],
      "stateMutability": "nonpayable",
      "type": "function"
    },
    {
      "inputs": [
        {
          "internalType": "address",
          "name": "from",
          "type": "address"
        },
        {
          "internalType": "address",
          "name": "to",
          "type": "address"
        },
        {
          "internalType": "uint256",
          "name": "tokenId",
          "type": "uint256"
        }
      ],
      "name": "safeTransferFrom",
      "outputs": [],
      "stateMutability": "nonpayable",
      "type": "function"
    },
    {
      "inputs": [
        {
          "internalType": "address",
          "name": "from",
          "type": "address"
        },
        {
          "internalType": "address",
          "name": "to",
          "type": "address"
        },
        {
          "internalType": "uint256",
          "name": "tokenId",
          "type": "uint256"
        },
        {
          "internalType": "bytes",
          "name": "data",
          "type": "bytes"
        }
      ],
      "name": "safeTransferFrom",
      "outputs": [],
      "stateMutability": "nonpayable",
      "type": "function"
    },
    {
      "inputs": [
        {
          "internalType": "address",
          "name": "operator",
          "type": "address"
        },
        {
          "internalType": "bool",
          "name": "approved",
          "type": "bool"
        }
      ],
      "name": "setApprovalForAll",
      "outputs": [],
      "stateMutability": "nonpayable",
      "type": "function"
    },
    {
      "inputs": [
        {
          "internalType": "uint256",
          "name": "_id",
          "type": "uint256"
        }
      ],
      "name": "showComments",
      "outputs": [
        {
          "components": [
            {
              "internalType": "address",
              "name": "sender",
              "type": "address"
            },
            {
              "internalType": "string",
              "name": "comment",
              "type": "string"
            }
          ],
          "internalType": "struct InFocus.Comment[]",
          "name": "",
          "type": "tuple[]"
        }
      ],
      "stateMutability": "view",
      "type": "function"
    },
    {
      "inputs": [
        {
          "internalType": "uint256",
          "name": "_id",
          "type": "uint256"
        }
      ],
      "name": "showPost",
      "outputs": [
        {
          "components": [
            {
              "internalType": "string",
              "name": "url",
              "type": "string"
            },
            {
              "components": [
                {
                  "internalType": "address",
                  "name": "sender",
                  "type": "address"
                },
                {
                  "internalType": "string",
                  "name": "comment",
                  "type": "string"
                }
              ],
              "internalType": "struct InFocus.Comment[]",
              "name": "comments",
              "type": "tuple[]"
            }
          ],
          "internalType": "struct InFocus.Innovation",
          "name": "",
          "type": "tuple"
        }
      ],
      "stateMutability": "view",
      "type": "function"
    },
    {
      "inputs": [
        {
          "internalType": "uint256",
          "name": "_id",
          "type": "uint256"
        }
      ],
      "name": "showTransactions",
      "outputs": [
        {
          "components": [
            {
              "internalType": "address",
              "name": "sender",
              "type": "address"
            },
            {
              "internalType": "string",
              "name": "txHash",
              "type": "string"
            },
            {
              "internalType": "uint256",
              "name": "amount",
              "type": "uint256"
            }
          ],
          "internalType": "struct InFocus.Transaction[]",
          "name": "",
          "type": "tuple[]"
        }
      ],
      "stateMutability": "view",
      "type": "function"
    },
    {
      "inputs": [
        {
          "internalType": "bytes4",
          "name": "interfaceId",
          "type": "bytes4"
        }
      ],
      "name": "supportsInterface",
      "outputs": [
        {
          "internalType": "bool",
          "name": "",
          "type": "bool"
        }
      ],
      "stateMutability": "view",
      "type": "function"
    },
    {
      "inputs": [],
      "name": "symbol",
      "outputs": [
        {
          "internalType": "string",
          "name": "",
          "type": "string"
        }
      ],
      "stateMutability": "view",
      "type": "function"
    },
    {
      "inputs": [
        {
          "internalType": "uint256",
          "name": "tokenId",
          "type": "uint256"
        }
      ],
      "name": "tokenURI",
      "outputs": [
        {
          "internalType": "string",
          "name": "",
          "type": "string"
        }
      ],
      "stateMutability": "view",
      "type": "function"
    },
    {
      "inputs": [
        {
          "internalType": "address",
          "name": "from",
          "type": "address"
        },
        {
          "internalType": "address",
          "name": "to",
          "type": "address"
        },
        {
          "internalType": "uint256",
          "name": "tokenId",
          "type": "uint256"
        }
      ],
      "name": "transferFrom",
      "outputs": [],
      "stateMutability": "nonpayable",
      "type": "function"
    },
    {
      "inputs": [
        {
          "internalType": "uint256",
          "name": "_id",
          "type": "uint256"
        },
        {
          "internalType": "string",
          "name": "_txHash",
          "type": "string"
        },
        {
          "internalType": "uint256",
          "name": "_amt",
          "type": "uint256"
        }
      ],
      "name": "txHash",
      "outputs": [],
      "stateMutability": "nonpayable",
      "type": "function"
    },
    {
      "inputs": [
        {
          "internalType": "uint256",
          "name": "_id",
          "type": "uint256"
        }
      ],
      "name": "withdraw",
      "outputs": [],
      "stateMutability": "nonpayable",
      "type": "function"
    }
  ],
  "bytecode": "0x60806040526040518060400160405280601181526020017f48656c6c6f20746f20436f6e7472616374000000000000000000000000000000815250600990816200004a9190620003f5565b506040518061048001604052806104508152602001620058026104509139600d9081620000789190620003f5565b506040518061020001604052806101dc815260200162005c526101dc9139600e9081620000a69190620003f5565b506040518061022001604052806101ff8152602001620056036101ff9139600f9081620000d49190620003f5565b50348015620000e257600080fd5b506040518060400160405280600981526020017f43726f776446756e6400000000000000000000000000000000000000000000008152506040518060400160405280600281526020017f43460000000000000000000000000000000000000000000000000000000000008152508160009081620001609190620003f5565b508060019081620001729190620003f5565b505050620004dc565b600081519050919050565b7f4e487b7100000000000000000000000000000000000000000000000000000000600052604160045260246000fd5b7f4e487b7100000000000000000000000000000000000000000000000000000000600052602260045260246000fd5b60006002820490506001821680620001fd57607f821691505b602082108103620002135762000212620001b5565b5b50919050565b60008190508160005260206000209050919050565b60006020601f8301049050919050565b600082821b905092915050565b6000600883026200027d7fffffffffffffffffffffffffffffffffffffffffffffffffffffffffffffffff826200023e565b6200028986836200023e565b95508019841693508086168417925050509392505050565b6000819050919050565b6000819050919050565b6000620002d6620002d0620002ca84620002a1565b620002ab565b620002a1565b9050919050565b6000819050919050565b620002f283620002b5565b6200030a6200030182620002dd565b8484546200024b565b825550505050565b600090565b6200032162000312565b6200032e818484620002e7565b505050565b5b8181101562000356576200034a60008262000317565b60018101905062000334565b5050565b601f821115620003a5576200036f8162000219565b6200037a846200022e565b810160208510156200038a578190505b620003a262000399856200022e565b83018262000333565b50505b505050565b600082821c905092915050565b6000620003ca60001984600802620003aa565b1980831691505092915050565b6000620003e58383620003b7565b9150826002028217905092915050565b62000400826200017b565b67ffffffffffffffff8111156200041c576200041b62000186565b5b620004288254620001e4565b620004358282856200035a565b600060209050601f8311600181146200046d576000841562000458578287015190505b620004648582620003d7565b865550620004d4565b601f1984166200047d8662000219565b60005b82811015620004a75784890151825560018201915060208501945060208101905062000480565b86831015620004c75784890151620004c3601f891682620003b7565b8355505b6001600288020188555050505b505050505050565b61511780620004ec6000396000f3fe6080604052600436106101c25760003560e01c80635505b0ad116100f7578063b10066fb11610095578063c1cbbca711610064578063c1cbbca7146106b9578063c87b56dd146106d5578063ce010ffc14610712578063e985e9c51461073b576101c2565b8063b10066fb146105eb578063b5c8921914610616578063b88d4fde14610653578063bc083bfe1461067c576101c2565b806370a08231116100d157806370a08231146105315780637c1a77f81461056e57806395d89b4114610597578063a22cb465146105c2576101c2565b80635505b0ad1461048c5780635deafbad146104b75780636352211e146104f4576101c2565b806319ff1d211161016457806330b2ac4e1161013e57806330b2ac4e146103ac578063352ee45e146103e957806342842e0e14610426578063451ecfff1461044f576101c2565b806319ff1d211461032f57806323b872dd1461035a5780632e1a7d4d14610383576101c2565b8063095ea7b3116101a0578063095ea7b31461026c5780630e69203214610295578063141961bc146102be57806315cc838814610304576101c2565b806301ffc9a7146101c757806306fdde0314610204578063081812fc1461022f575b600080fd5b3480156101d357600080fd5b506101ee60048036038101906101e99190613223565b610778565b6040516101fb919061326b565b60405180910390f35b34801561021057600080fd5b5061021961085a565b6040516102269190613316565b60405180910390f35b34801561023b57600080fd5b506102566004803603810190610251919061336e565b6108ec565b60405161026391906133dc565b60405180910390f35b34801561027857600080fd5b50610293600480360381019061028e9190613423565b610932565b005b3480156102a157600080fd5b506102bc60048036038101906102b79190613598565b610a49565b005b3480156102ca57600080fd5b506102e560048036038101906102e0919061336e565b610b2d565b6040516102fb9a99989796959493929190613632565b60405180910390f35b34801561031057600080fd5b50610319610ccb565b60405161032691906136dc565b60405180910390f35b34801561033b57600080fd5b50610344610cd5565b6040516103519190613316565b60405180910390f35b34801561036657600080fd5b50610381600480360381019061037c91906136f7565b610d63565b005b34801561038f57600080fd5b506103aa60048036038101906103a5919061336e565b610dc3565b005b3480156103b857600080fd5b506103d360048036038101906103ce919061336e565b610f60565b6040516103e09190613316565b60405180910390f35b3480156103f557600080fd5b50610410600480360381019061040b919061336e565b611006565b60405161041d91906138a2565b60405180910390f35b34801561043257600080fd5b5061044d600480360381019061044891906136f7565b611163565b005b34801561045b57600080fd5b506104766004803603810190610471919061336e565b611183565b604051610483919061398e565b60405180910390f35b34801561049857600080fd5b506104a1611389565b6040516104ae91906136dc565b60405180910390f35b3480156104c357600080fd5b506104de60048036038101906104d9919061336e565b61138f565b6040516104eb9190613ad1565b60405180910390f35b34801561050057600080fd5b5061051b6004803603810190610516919061336e565b6114f6565b60405161052891906133dc565b60405180910390f35b34801561053d57600080fd5b5061055860048036038101906105539190613af3565b61157c565b60405161056591906136dc565b60405180910390f35b34801561057a57600080fd5b5061059560048036038101906105909190613b20565b611633565b005b3480156105a357600080fd5b506105ac61167a565b6040516105b99190613316565b60405180910390f35b3480156105ce57600080fd5b506105e960048036038101906105e49190613b95565b61170c565b005b3480156105f757600080fd5b50610600611722565b60405161060d91906136dc565b60405180910390f35b34801561062257600080fd5b5061063d60048036038101906106389190613bd5565b611728565b60405161064a91906136dc565b60405180910390f35b34801561065f57600080fd5b5061067a60048036038101906106759190613d29565b611814565b005b34801561068857600080fd5b506106a3600480360381019061069e919061336e565b611876565b6040516106b09190613f4d565b60405180910390f35b6106d360048036038101906106ce919061336e565b611bd9565b005b3480156106e157600080fd5b506106fc60048036038101906106f7919061336e565b611e02565b6040516107099190613316565b60405180910390f35b34801561071e57600080fd5b5061073960048036038101906107349190613f6f565b611f14565b005b34801561074757600080fd5b50610762600480360381019061075d9190613fcb565b611fe7565b60405161076f919061326b565b60405180910390f35b60007f80ac58cd000000000000000000000000000000000000000000000000000000007bffffffffffffffffffffffffffffffffffffffffffffffffffffffff1916827bffffffffffffffffffffffffffffffffffffffffffffffffffffffff1916148061084357507f5b5e139f000000000000000000000000000000000000000000000000000000007bffffffffffffffffffffffffffffffffffffffffffffffffffffffff1916827bffffffffffffffffffffffffffffffffffffffffffffffffffffffff1916145b8061085357506108528261207b565b5b9050919050565b6060600080546108699061403a565b80601f01602080910402602001604051908101604052809291908181526020018280546108959061403a565b80156108e25780601f106108b7576101008083540402835291602001916108e2565b820191906000526020600020905b8154815290600101906020018083116108c557829003601f168201915b5050505050905090565b60006108f7826120e5565b6004600083815260200190815260200160002060009054906101000a900473ffffffffffffffffffffffffffffffffffffffff169050919050565b600061093d826114f6565b90508073ffffffffffffffffffffffffffffffffffffffff168373ffffffffffffffffffffffffffffffffffffffff16036109ad576040517f08c379a00000000000000000000000000000000000000000000000000000000081526004016109a4906140dd565b60405180910390fd5b8073ffffffffffffffffffffffffffffffffffffffff166109cc612130565b73ffffffffffffffffffffffffffffffffffffffff1614806109fb57506109fa816109f5612130565b611fe7565b5b610a3a576040517f08c379a0000000000000000000000000000000000000000000000000000000008152600401610a319061416f565b60405180910390fd5b610a448383612138565b505050565b6000600a6000858152602001908152602001600020905080600a0160405180606001604052803373ffffffffffffffffffffffffffffffffffffffff16815260200185815260200184815250908060018154018082558091505060019003906000526020600020906003020160009091909190915060008201518160000160006101000a81548173ffffffffffffffffffffffffffffffffffffffff021916908373ffffffffffffffffffffffffffffffffffffffff1602179055506020820151816001019081610b1a919061433b565b5060408201518160020155505050505050565b600a602052806000526040600020600091509050806000015490806001018054610b569061403a565b80601f0160208091040260200160405190810160405280929190818152602001828054610b829061403a565b8015610bcf5780601f10610ba457610100808354040283529160200191610bcf565b820191906000526020600020905b815481529060010190602001808311610bb257829003601f168201915b505050505090806002018054610be49061403a565b80601f0160208091040260200160405190810160405280929190818152602001828054610c109061403a565b8015610c5d5780601f10610c3257610100808354040283529160200191610c5d565b820191906000526020600020905b815481529060010190602001808311610c4057829003601f168201915b5050505050908060030160009054906101000a900473ffffffffffffffffffffffffffffffffffffffff16908060040154908060050160009054906101000a900460ff16908060060154908060070154908060080154908060090160009054906101000a900460ff1690508a565b6000600754905090565b60098054610ce29061403a565b80601f0160208091040260200160405190810160405280929190818152602001828054610d0e9061403a565b8015610d5b5780601f10610d3057610100808354040283529160200191610d5b565b820191906000526020600020905b815481529060010190602001808311610d3e57829003601f168201915b505050505081565b610d74610d6e612130565b826121f1565b610db3576040517f08c379a0000000000000000000000000000000000000000000000000000000008152600401610daa9061447f565b60405180910390fd5b610dbe838383612286565b505050565b3373ffffffffffffffffffffffffffffffffffffffff16600a600083815260200190815260200160002060030160009054906101000a900473ffffffffffffffffffffffffffffffffffffffff1673ffffffffffffffffffffffffffffffffffffffff1614610e67576040517f08c379a0000000000000000000000000000000000000000000000000000000008152600401610e5e906144eb565b60405180910390fd5b60001515600a600083815260200190815260200160002060050160009054906101000a900460ff16151514610ed1576040517f08c379a0000000000000000000000000000000000000000000000000000000008152600401610ec890614557565b60405180910390fd5b6001600a600083815260200190815260200160002060050160006101000a81548160ff0219169083151502179055503373ffffffffffffffffffffffffffffffffffffffff166108fc600a6000848152602001908152602001600020600601549081150290604051600060405180830381858888f19350505050158015610f5c573d6000803e3d6000fd5b5050565b600c602052806000526040600020600091509050806000018054610f839061403a565b80601f0160208091040260200160405190810160405280929190818152602001828054610faf9061403a565b8015610ffc5780601f10610fd157610100808354040283529160200191610ffc565b820191906000526020600020905b815481529060010190602001808311610fdf57829003601f168201915b5050505050905081565b6060600c6000838152602001908152602001600020600101805480602002602001604051908101604052809291908181526020016000905b8282101561115857838290600052602060002090600202016040518060400160405290816000820160009054906101000a900473ffffffffffffffffffffffffffffffffffffffff1673ffffffffffffffffffffffffffffffffffffffff1673ffffffffffffffffffffffffffffffffffffffff1681526020016001820180546110c79061403a565b80601f01602080910402602001604051908101604052809291908181526020018280546110f39061403a565b80156111405780601f1061111557610100808354040283529160200191611140565b820191906000526020600020905b81548152906001019060200180831161112357829003601f168201915b5050505050815250508152602001906001019061103e565b505050509050919050565b61117e83838360405180602001604052806000815250611814565b505050565b61118b613128565b600c60008381526020019081526020016000206040518060400160405290816000820180546111b99061403a565b80601f01602080910402602001604051908101604052809291908181526020018280546111e59061403a565b80156112325780601f1061120757610100808354040283529160200191611232565b820191906000526020600020905b81548152906001019060200180831161121557829003601f168201915b5050505050815260200160018201805480602002602001604051908101604052809291908181526020016000905b8282101561137a57838290600052602060002090600202016040518060400160405290816000820160009054906101000a900473ffffffffffffffffffffffffffffffffffffffff1673ffffffffffffffffffffffffffffffffffffffff1673ffffffffffffffffffffffffffffffffffffffff1681526020016001820180546112e99061403a565b80601f01602080910402602001604051908101604052809291908181526020018280546113159061403a565b80156113625780601f1061133757610100808354040283529160200191611362565b820191906000526020600020905b81548152906001019060200180831161134557829003601f168201915b50505050508152505081526020019060010190611260565b50505050815250509050919050565b600b5481565b6060600a6000838152602001908152602001600020600a01805480602002602001604051908101604052809291908181526020016000905b828210156114eb57838290600052602060002090600302016040518060600160405290816000820160009054906101000a900473ffffffffffffffffffffffffffffffffffffffff1673ffffffffffffffffffffffffffffffffffffffff1673ffffffffffffffffffffffffffffffffffffffff1681526020016001820180546114509061403a565b80601f016020809104026020016040519081016040528092919081815260200182805461147c9061403a565b80156114c95780601f1061149e576101008083540402835291602001916114c9565b820191906000526020600020905b8154815290600101906020018083116114ac57829003601f168201915b50505050508152602001600282015481525050815260200190600101906113c7565b505050509050919050565b6000806115028361257f565b9050600073ffffffffffffffffffffffffffffffffffffffff168173ffffffffffffffffffffffffffffffffffffffff1603611573576040517f08c379a000000000000000000000000000000000000000000000000000000000815260040161156a906145c3565b60405180910390fd5b80915050919050565b60008073ffffffffffffffffffffffffffffffffffffffff168273ffffffffffffffffffffffffffffffffffffffff16036115ec576040517f08c379a00000000000000000000000000000000000000000000000000000000081526004016115e390614655565b60405180910390fd5b600360008373ffffffffffffffffffffffffffffffffffffffff1673ffffffffffffffffffffffffffffffffffffffff168152602001908152602001600020549050919050565b600b6000815480929190611646906146a4565b91905055506000600c6000600b548152602001908152602001600020905081816000019081611675919061433b565b505050565b6060600180546116899061403a565b80601f01602080910402602001604051908101604052809291908181526020018280546116b59061403a565b80156117025780601f106116d757610100808354040283529160200191611702565b820191906000526020600020905b8154815290600101906020018083116116e557829003601f168201915b5050505050905090565b61171e611717612130565b83836125bc565b5050565b60075481565b60006007600081548092919061173d906146a4565b91905055506000600a600060075481526020019081526020016000209050600754816000018190555086816001019081611777919061433b565b5085816002019081611789919061433b565b50828160080181905550338160030160006101000a81548173ffffffffffffffffffffffffffffffffffffffff021916908373ffffffffffffffffffffffffffffffffffffffff16021790555084816004018190555060008160050160006101000a81548160ff02191690831515021790555083816007018190555060075491505095945050505050565b61182561181f612130565b836121f1565b611864576040517f08c379a000000000000000000000000000000000000000000000000000000000815260040161185b9061447f565b60405180910390fd5b61187084848484612728565b50505050565b61187e613142565b600a600083815260200190815260200160002060405180610160016040529081600082015481526020016001820180546118b79061403a565b80601f01602080910402602001604051908101604052809291908181526020018280546118e39061403a565b80156119305780601f1061190557610100808354040283529160200191611930565b820191906000526020600020905b81548152906001019060200180831161191357829003601f168201915b505050505081526020016002820180546119499061403a565b80601f01602080910402602001604051908101604052809291908181526020018280546119759061403a565b80156119c25780601f10611997576101008083540402835291602001916119c2565b820191906000526020600020905b8154815290600101906020018083116119a557829003601f168201915b505050505081526020016003820160009054906101000a900473ffffffffffffffffffffffffffffffffffffffff1673ffffffffffffffffffffffffffffffffffffffff1673ffffffffffffffffffffffffffffffffffffffff168152602001600482015481526020016005820160009054906101000a900460ff161515151581526020016006820154815260200160078201548152602001600882015481526020016009820160009054906101000a900460ff1660ff1660ff168152602001600a8201805480602002602001604051908101604052809291908181526020016000905b82821015611bca57838290600052602060002090600302016040518060600160405290816000820160009054906101000a900473ffffffffffffffffffffffffffffffffffffffff1673ffffffffffffffffffffffffffffffffffffffff1673ffffffffffffffffffffffffffffffffffffffff168152602001600182018054611b2f9061403a565b80601f0160208091040260200160405190810160405280929190818152602001828054611b5b9061403a565b8015611ba85780601f10611b7d57610100808354040283529160200191611ba8565b820191906000526020600020905b815481529060010190602001808311611b8b57829003601f168201915b5050505050815260200160028201548152505081526020019060010190611aa6565b50505050815250509050919050565b60003411611c1c576040517f08c379a0000000000000000000000000000000000000000000000000000000008152600401611c1390614738565b60405180910390fd5b6000600a6000838152602001908152602001600020905060018160090160008282829054906101000a900460ff16611c549190614758565b92506101000a81548160ff021916908360ff16021790555080600701543410611db6576008600081819054906101000a900460ff1680929190611c969061478d565b91906101000a81548160ff021916908360ff16021790555050611ccb33600860009054906101000a900460ff1660ff16612784565b6000600d611cea600860009054906101000a900460ff1660ff166129a1565b600e604051602001611cfe93929190614875565b604051602081830303815290604052905060008183600201600f604051602001611d2a939291906148a6565b60405160208183030381529060405290506000611d6d611d4983612a6f565b604051602001611d599190614a53565b604051602081830303815290604052612a6f565b9050600081604051602001611d829190614ae2565b6040516020818303038152906040529050611db18560090160009054906101000a900460ff1660ff1682612bd2565b505050505b34816006016000828254611dca9190614b04565b925050819055508060040154816006015410611dfe5760018160050160006101000a81548160ff0219169083151502179055505b5050565b6060611e0d826120e5565b6000600660008481526020019081526020016000208054611e2d9061403a565b80601f0160208091040260200160405190810160405280929190818152602001828054611e599061403a565b8015611ea65780601f10611e7b57610100808354040283529160200191611ea6565b820191906000526020600020905b815481529060010190602001808311611e8957829003601f168201915b505050505090506000611eb7612c3f565b90506000815103611ecc578192505050611f0f565b600082511115611f01578082604051602001611ee9929190614b38565b60405160208183030381529060405292505050611f0f565b611f0a84612c56565b925050505b919050565b6000600c600084815260200190815260200160002090508060010160405180604001604052803373ffffffffffffffffffffffffffffffffffffffff16815260200184815250908060018154018082558091505060019003906000526020600020906002020160009091909190915060008201518160000160006101000a81548173ffffffffffffffffffffffffffffffffffffffff021916908373ffffffffffffffffffffffffffffffffffffffff1602179055506020820151816001019081611fdf919061433b565b505050505050565b6000600560008473ffffffffffffffffffffffffffffffffffffffff1673ffffffffffffffffffffffffffffffffffffffff16815260200190815260200160002060008373ffffffffffffffffffffffffffffffffffffffff1673ffffffffffffffffffffffffffffffffffffffff16815260200190815260200160002060009054906101000a900460ff16905092915050565b60007f01ffc9a7000000000000000000000000000000000000000000000000000000007bffffffffffffffffffffffffffffffffffffffffffffffffffffffff1916827bffffffffffffffffffffffffffffffffffffffffffffffffffffffff1916149050919050565b6120ee81612cbe565b61212d576040517f08c379a0000000000000000000000000000000000000000000000000000000008152600401612124906145c3565b60405180910390fd5b50565b600033905090565b816004600083815260200190815260200160002060006101000a81548173ffffffffffffffffffffffffffffffffffffffff021916908373ffffffffffffffffffffffffffffffffffffffff160217905550808273ffffffffffffffffffffffffffffffffffffffff166121ab836114f6565b73ffffffffffffffffffffffffffffffffffffffff167f8c5be1e5ebec7d5bd14f71427d1e84f3dd0314c0f7b2291e5b200ac8c7c3b92560405160405180910390a45050565b6000806121fd836114f6565b90508073ffffffffffffffffffffffffffffffffffffffff168473ffffffffffffffffffffffffffffffffffffffff16148061223f575061223e8185611fe7565b5b8061227d57508373ffffffffffffffffffffffffffffffffffffffff16612265846108ec565b73ffffffffffffffffffffffffffffffffffffffff16145b91505092915050565b8273ffffffffffffffffffffffffffffffffffffffff166122a6826114f6565b73ffffffffffffffffffffffffffffffffffffffff16146122fc576040517f08c379a00000000000000000000000000000000000000000000000000000000081526004016122f390614bce565b60405180910390fd5b600073ffffffffffffffffffffffffffffffffffffffff168273ffffffffffffffffffffffffffffffffffffffff160361236b576040517f08c379a000000000000000000000000000000000000000000000000000000000815260040161236290614c60565b60405180910390fd5b6123788383836001612cff565b8273ffffffffffffffffffffffffffffffffffffffff16612398826114f6565b73ffffffffffffffffffffffffffffffffffffffff16146123ee576040517f08c379a00000000000000000000000000000000000000000000000000000000081526004016123e590614bce565b60405180910390fd5b6004600082815260200190815260200160002060006101000a81549073ffffffffffffffffffffffffffffffffffffffff02191690556001600360008573ffffffffffffffffffffffffffffffffffffffff1673ffffffffffffffffffffffffffffffffffffffff168152602001908152602001600020600082825403925050819055506001600360008473ffffffffffffffffffffffffffffffffffffffff1673ffffffffffffffffffffffffffffffffffffffff16815260200190815260200160002060008282540192505081905550816002600083815260200190815260200160002060006101000a81548173ffffffffffffffffffffffffffffffffffffffff021916908373ffffffffffffffffffffffffffffffffffffffff160217905550808273ffffffffffffffffffffffffffffffffffffffff168473ffffffffffffffffffffffffffffffffffffffff167fddf252ad1be2c89b69c2b068fc378daa952ba7f163c4a11628f55a4df523b3ef60405160405180910390a461257a8383836001612e25565b505050565b60006002600083815260200190815260200160002060009054906101000a900473ffffffffffffffffffffffffffffffffffffffff169050919050565b8173ffffffffffffffffffffffffffffffffffffffff168373ffffffffffffffffffffffffffffffffffffffff160361262a576040517f08c379a000000000000000000000000000000000000000000000000000000000815260040161262190614ccc565b60405180910390fd5b80600560008573ffffffffffffffffffffffffffffffffffffffff1673ffffffffffffffffffffffffffffffffffffffff16815260200190815260200160002060008473ffffffffffffffffffffffffffffffffffffffff1673ffffffffffffffffffffffffffffffffffffffff16815260200190815260200160002060006101000a81548160ff0219169083151502179055508173ffffffffffffffffffffffffffffffffffffffff168373ffffffffffffffffffffffffffffffffffffffff167f17307eab39ab6107e8899845ad3d59bd9653f200f220920489ca2b5937696c318360405161271b919061326b565b60405180910390a3505050565b612733848484612286565b61273f84848484612e2b565b61277e576040517f08c379a000000000000000000000000000000000000000000000000000000000815260040161277590614d5e565b60405180910390fd5b50505050565b600073ffffffffffffffffffffffffffffffffffffffff168273ffffffffffffffffffffffffffffffffffffffff16036127f3576040517f08c379a00000000000000000000000000000000000000000000000000000000081526004016127ea90614dca565b60405180910390fd5b6127fc81612cbe565b1561283c576040517f08c379a000000000000000000000000000000000000000000000000000000000815260040161283390614e36565b60405180910390fd5b61284a600083836001612cff565b61285381612cbe565b15612893576040517f08c379a000000000000000000000000000000000000000000000000000000000815260040161288a90614e36565b60405180910390fd5b6001600360008473ffffffffffffffffffffffffffffffffffffffff1673ffffffffffffffffffffffffffffffffffffffff16815260200190815260200160002060008282540192505081905550816002600083815260200190815260200160002060006101000a81548173ffffffffffffffffffffffffffffffffffffffff021916908373ffffffffffffffffffffffffffffffffffffffff160217905550808273ffffffffffffffffffffffffffffffffffffffff16600073ffffffffffffffffffffffffffffffffffffffff167fddf252ad1be2c89b69c2b068fc378daa952ba7f163c4a11628f55a4df523b3ef60405160405180910390a461299d600083836001612e25565b5050565b6060600060016129b084612fb2565b01905060008167ffffffffffffffff8111156129cf576129ce61346d565b5b6040519080825280601f01601f191660200182016040528015612a015781602001600182028036833780820191505090505b509050600082602001820190505b600115612a64578080600190039150507f3031323334353637383961626364656600000000000000000000000000000000600a86061a8153600a8581612a5857612a57614e56565b5b04945060008503612a0f575b819350505050919050565b60606000825103612a9157604051806020016040528060008152509050612bcd565b60006040518060600160405280604081526020016150a26040913990506000600360028551612ac09190614b04565b612aca9190614e85565b6004612ad69190614eb6565b67ffffffffffffffff811115612aef57612aee61346d565b5b6040519080825280601f01601f191660200182016040528015612b215781602001600182028036833780820191505090505b509050600182016020820185865187015b80821015612b8d576003820191508151603f8160121c168501518453600184019350603f81600c1c168501518453600184019350603f8160061c168501518453600184019350603f8116850151845360018401935050612b32565b5050600386510660018114612ba95760028114612bbc57612bc4565b603d6001830353603d6002830353612bc4565b603d60018303535b50505080925050505b919050565b612bdb82612cbe565b612c1a576040517f08c379a0000000000000000000000000000000000000000000000000000000008152600401612c1190614f6a565b60405180910390fd5b80600660008481526020019081526020016000209081612c3a919061433b565b505050565b606060405180602001604052806000815250905090565b6060612c61826120e5565b6000612c6b612c3f565b90506000815111612c8b5760405180602001604052806000815250612cb6565b80612c95846129a1565b604051602001612ca6929190614b38565b6040516020818303038152906040525b915050919050565b60008073ffffffffffffffffffffffffffffffffffffffff16612ce08361257f565b73ffffffffffffffffffffffffffffffffffffffff1614159050919050565b6001811115612e1f57600073ffffffffffffffffffffffffffffffffffffffff168473ffffffffffffffffffffffffffffffffffffffff1614612d935780600360008673ffffffffffffffffffffffffffffffffffffffff1673ffffffffffffffffffffffffffffffffffffffff1681526020019081526020016000206000828254612d8b9190614f8a565b925050819055505b600073ffffffffffffffffffffffffffffffffffffffff168373ffffffffffffffffffffffffffffffffffffffff1614612e1e5780600360008573ffffffffffffffffffffffffffffffffffffffff1673ffffffffffffffffffffffffffffffffffffffff1681526020019081526020016000206000828254612e169190614b04565b925050819055505b5b50505050565b50505050565b6000612e4c8473ffffffffffffffffffffffffffffffffffffffff16613105565b15612fa5578373ffffffffffffffffffffffffffffffffffffffff1663150b7a02612e75612130565b8786866040518563ffffffff1660e01b8152600401612e979493929190615013565b6020604051808303816000875af1925050508015612ed357506040513d601f19601f82011682018060405250810190612ed09190615074565b60015b612f55573d8060008114612f03576040519150601f19603f3d011682016040523d82523d6000602084013e612f08565b606091505b506000815103612f4d576040517f08c379a0000000000000000000000000000000000000000000000000000000008152600401612f4490614d5e565b60405180910390fd5b805181602001fd5b63150b7a0260e01b7bffffffffffffffffffffffffffffffffffffffffffffffffffffffff1916817bffffffffffffffffffffffffffffffffffffffffffffffffffffffff191614915050612faa565b600190505b949350505050565b600080600090507a184f03e93ff9f4daa797ed6e38ed64bf6a1f0100000000000000008310613010577a184f03e93ff9f4daa797ed6e38ed64bf6a1f010000000000000000838161300657613005614e56565b5b0492506040810190505b6d04ee2d6d415b85acef8100000000831061304d576d04ee2d6d415b85acef8100000000838161304357613042614e56565b5b0492506020810190505b662386f26fc10000831061307c57662386f26fc10000838161307257613071614e56565b5b0492506010810190505b6305f5e10083106130a5576305f5e100838161309b5761309a614e56565b5b0492506008810190505b61271083106130ca5761271083816130c0576130bf614e56565b5b0492506004810190505b606483106130ed57606483816130e3576130e2614e56565b5b0492506002810190505b600a83106130fc576001810190505b80915050919050565b6000808273ffffffffffffffffffffffffffffffffffffffff163b119050919050565b604051806040016040528060608152602001606081525090565b604051806101600160405280600081526020016060815260200160608152602001600073ffffffffffffffffffffffffffffffffffffffff16815260200160008152602001600015158152602001600081526020016000815260200160008152602001600060ff168152602001606081525090565b6000604051905090565b600080fd5b600080fd5b60007fffffffff0000000000000000000000000000000000000000000000000000000082169050919050565b613200816131cb565b811461320b57600080fd5b50565b60008135905061321d816131f7565b92915050565b600060208284031215613239576132386131c1565b5b60006132478482850161320e565b91505092915050565b60008115159050919050565b61326581613250565b82525050565b6000602082019050613280600083018461325c565b92915050565b600081519050919050565b600082825260208201905092915050565b60005b838110156132c05780820151818401526020810190506132a5565b60008484015250505050565b6000601f19601f8301169050919050565b60006132e882613286565b6132f28185613291565b93506133028185602086016132a2565b61330b816132cc565b840191505092915050565b6000602082019050818103600083015261333081846132dd565b905092915050565b6000819050919050565b61334b81613338565b811461335657600080fd5b50565b60008135905061336881613342565b92915050565b600060208284031215613384576133836131c1565b5b600061339284828501613359565b91505092915050565b600073ffffffffffffffffffffffffffffffffffffffff82169050919050565b60006133c68261339b565b9050919050565b6133d6816133bb565b82525050565b60006020820190506133f160008301846133cd565b92915050565b613400816133bb565b811461340b57600080fd5b50565b60008135905061341d816133f7565b92915050565b6000806040838503121561343a576134396131c1565b5b60006134488582860161340e565b925050602061345985828601613359565b9150509250929050565b600080fd5b600080fd5b7f4e487b7100000000000000000000000000000000000000000000000000000000600052604160045260246000fd5b6134a5826132cc565b810181811067ffffffffffffffff821117156134c4576134c361346d565b5b80604052505050565b60006134d76131b7565b90506134e3828261349c565b919050565b600067ffffffffffffffff8211156135035761350261346d565b5b61350c826132cc565b9050602081019050919050565b82818337600083830152505050565b600061353b613536846134e8565b6134cd565b90508281526020810184848401111561355757613556613468565b5b613562848285613519565b509392505050565b600082601f83011261357f5761357e613463565b5b813561358f848260208601613528565b91505092915050565b6000806000606084860312156135b1576135b06131c1565b5b60006135bf86828701613359565b935050602084013567ffffffffffffffff8111156135e0576135df6131c6565b5b6135ec8682870161356a565b92505060406135fd86828701613359565b9150509250925092565b61361081613338565b82525050565b600060ff82169050919050565b61362c81613616565b82525050565b600061014082019050613648600083018d613607565b818103602083015261365a818c6132dd565b9050818103604083015261366e818b6132dd565b905061367d606083018a6133cd565b61368a6080830189613607565b61369760a083018861325c565b6136a460c0830187613607565b6136b160e0830186613607565b6136bf610100830185613607565b6136cd610120830184613623565b9b9a5050505050505050505050565b60006020820190506136f16000830184613607565b92915050565b6000806000606084860312156137105761370f6131c1565b5b600061371e8682870161340e565b935050602061372f8682870161340e565b925050604061374086828701613359565b9150509250925092565b600081519050919050565b600082825260208201905092915050565b6000819050602082019050919050565b61377f816133bb565b82525050565b600082825260208201905092915050565b60006137a182613286565b6137ab8185613785565b93506137bb8185602086016132a2565b6137c4816132cc565b840191505092915050565b60006040830160008301516137e76000860182613776565b50602083015184820360208601526137ff8282613796565b9150508091505092915050565b600061381883836137cf565b905092915050565b6000602082019050919050565b60006138388261374a565b6138428185613755565b93508360208202850161385485613766565b8060005b858110156138905784840389528151613871858261380c565b945061387c83613820565b925060208a01995050600181019050613858565b50829750879550505050505092915050565b600060208201905081810360008301526138bc818461382d565b905092915050565b600082825260208201905092915050565b60006138e08261374a565b6138ea81856138c4565b9350836020820285016138fc85613766565b8060005b858110156139385784840389528151613919858261380c565b945061392483613820565b925060208a01995050600181019050613900565b50829750879550505050505092915050565b600060408301600083015184820360008601526139678282613796565b9150506020830151848203602086015261398182826138d5565b9150508091505092915050565b600060208201905081810360008301526139a8818461394a565b905092915050565b600081519050919050565b600082825260208201905092915050565b6000819050602082019050919050565b6139e581613338565b82525050565b6000606083016000830151613a036000860182613776565b5060208301518482036020860152613a1b8282613796565b9150506040830151613a3060408601826139dc565b508091505092915050565b6000613a4783836139eb565b905092915050565b6000602082019050919050565b6000613a67826139b0565b613a7181856139bb565b935083602082028501613a83856139cc565b8060005b85811015613abf5784840389528151613aa08582613a3b565b9450613aab83613a4f565b925060208a01995050600181019050613a87565b50829750879550505050505092915050565b60006020820190508181036000830152613aeb8184613a5c565b905092915050565b600060208284031215613b0957613b086131c1565b5b6000613b178482850161340e565b91505092915050565b600060208284031215613b3657613b356131c1565b5b600082013567ffffffffffffffff811115613b5457613b536131c6565b5b613b608482850161356a565b91505092915050565b613b7281613250565b8114613b7d57600080fd5b50565b600081359050613b8f81613b69565b92915050565b60008060408385031215613bac57613bab6131c1565b5b6000613bba8582860161340e565b9250506020613bcb85828601613b80565b9150509250929050565b600080600080600060a08688031215613bf157613bf06131c1565b5b600086013567ffffffffffffffff811115613c0f57613c0e6131c6565b5b613c1b8882890161356a565b955050602086013567ffffffffffffffff811115613c3c57613c3b6131c6565b5b613c488882890161356a565b9450506040613c5988828901613359565b9350506060613c6a88828901613359565b9250506080613c7b88828901613359565b9150509295509295909350565b600067ffffffffffffffff821115613ca357613ca261346d565b5b613cac826132cc565b9050602081019050919050565b6000613ccc613cc784613c88565b6134cd565b905082815260208101848484011115613ce857613ce7613468565b5b613cf3848285613519565b509392505050565b600082601f830112613d1057613d0f613463565b5b8135613d20848260208601613cb9565b91505092915050565b60008060008060808587031215613d4357613d426131c1565b5b6000613d518782880161340e565b9450506020613d628782880161340e565b9350506040613d7387828801613359565b925050606085013567ffffffffffffffff811115613d9457613d936131c6565b5b613da087828801613cfb565b91505092959194509250565b613db581613250565b82525050565b613dc481613616565b82525050565b600082825260208201905092915050565b6000613de6826139b0565b613df08185613dca565b935083602082028501613e02856139cc565b8060005b85811015613e3e5784840389528151613e1f8582613a3b565b9450613e2a83613a4f565b925060208a01995050600181019050613e06565b50829750879550505050505092915050565b600061016083016000830151613e6960008601826139dc565b5060208301518482036020860152613e818282613796565b91505060408301518482036040860152613e9b8282613796565b9150506060830151613eb06060860182613776565b506080830151613ec360808601826139dc565b5060a0830151613ed660a0860182613dac565b5060c0830151613ee960c08601826139dc565b5060e0830151613efc60e08601826139dc565b50610100830151613f116101008601826139dc565b50610120830151613f26610120860182613dbb565b50610140830151848203610140860152613f408282613ddb565b9150508091505092915050565b60006020820190508181036000830152613f678184613e50565b905092915050565b60008060408385031215613f8657613f856131c1565b5b6000613f9485828601613359565b925050602083013567ffffffffffffffff811115613fb557613fb46131c6565b5b613fc18582860161356a565b9150509250929050565b60008060408385031215613fe257613fe16131c1565b5b6000613ff08582860161340e565b92505060206140018582860161340e565b9150509250929050565b7f4e487b7100000000000000000000000000000000000000000000000000000000600052602260045260246000fd5b6000600282049050600182168061405257607f821691505b6020821081036140655761406461400b565b5b50919050565b7f4552433732313a20617070726f76616c20746f2063757272656e74206f776e6560008201527f7200000000000000000000000000000000000000000000000000000000000000602082015250565b60006140c7602183613291565b91506140d28261406b565b604082019050919050565b600060208201905081810360008301526140f6816140ba565b9050919050565b7f4552433732313a20617070726f76652063616c6c6572206973206e6f7420746f60008201527f6b656e206f776e6572206f7220617070726f76656420666f7220616c6c000000602082015250565b6000614159603d83613291565b9150614164826140fd565b604082019050919050565b600060208201905081810360008301526141888161414c565b9050919050565b60008190508160005260206000209050919050565b60006020601f8301049050919050565b600082821b905092915050565b6000600883026141f17fffffffffffffffffffffffffffffffffffffffffffffffffffffffffffffffff826141b4565b6141fb86836141b4565b95508019841693508086168417925050509392505050565b6000819050919050565b600061423861423361422e84613338565b614213565b613338565b9050919050565b6000819050919050565b6142528361421d565b61426661425e8261423f565b8484546141c1565b825550505050565b600090565b61427b61426e565b614286818484614249565b505050565b5b818110156142aa5761429f600082614273565b60018101905061428c565b5050565b601f8211156142ef576142c08161418f565b6142c9846141a4565b810160208510156142d8578190505b6142ec6142e4856141a4565b83018261428b565b50505b505050565b600082821c905092915050565b6000614312600019846008026142f4565b1980831691505092915050565b600061432b8383614301565b9150826002028217905092915050565b61434482613286565b67ffffffffffffffff81111561435d5761435c61346d565b5b614367825461403a565b6143728282856142ae565b600060209050601f8311600181146143a55760008415614393578287015190505b61439d858261431f565b865550614405565b601f1984166143b38661418f565b60005b828110156143db578489015182556001820191506020850194506020810190506143b6565b868310156143f857848901516143f4601f891682614301565b8355505b6001600288020188555050505b505050505050565b7f4552433732313a2063616c6c6572206973206e6f7420746f6b656e206f776e6560008201527f72206f7220617070726f76656400000000000000000000000000000000000000602082015250565b6000614469602d83613291565b91506144748261440d565b604082019050919050565b600060208201905081810360008301526144988161445c565b9050919050565b7f4e6f7420746865206f776e657200000000000000000000000000000000000000600082015250565b60006144d5600d83613291565b91506144e08261449f565b602082019050919050565b60006020820190508181036000830152614504816144c8565b9050919050565b7f416c72656164792057697468647261776e000000000000000000000000000000600082015250565b6000614541601183613291565b915061454c8261450b565b602082019050919050565b6000602082019050818103600083015261457081614534565b9050919050565b7f4552433732313a20696e76616c696420746f6b656e2049440000000000000000600082015250565b60006145ad601883613291565b91506145b882614577565b602082019050919050565b600060208201905081810360008301526145dc816145a0565b9050919050565b7f4552433732313a2061646472657373207a65726f206973206e6f74206120766160008201527f6c6964206f776e65720000000000000000000000000000000000000000000000602082015250565b600061463f602983613291565b915061464a826145e3565b604082019050919050565b6000602082019050818103600083015261466e81614632565b9050919050565b7f4e487b7100000000000000000000000000000000000000000000000000000000600052601160045260246000fd5b60006146af82613338565b91507fffffffffffffffffffffffffffffffffffffffffffffffffffffffffffffffff82036146e1576146e0614675565b5b600182019050919050565b7f4861766520746f20636f6e7472696275746520736f6d65204554480000000000600082015250565b6000614722601b83613291565b915061472d826146ec565b602082019050919050565b6000602082019050818103600083015261475181614715565b9050919050565b600061476382613616565b915061476e83613616565b9250828201905060ff81111561478757614786614675565b5b92915050565b600061479882613616565b915060ff82036147ab576147aa614675565b5b600182019050919050565b600081905092915050565b600081546147ce8161403a565b6147d881866147b6565b945060018216600081146147f357600181146148085761483b565b60ff198316865281151582028601935061483b565b6148118561418f565b60005b8381101561483357815481890152600182019150602081019050614814565b838801955050505b50505092915050565b600061484f82613286565b61485981856147b6565b93506148698185602086016132a2565b80840191505092915050565b600061488182866147c1565b915061488d8285614844565b915061489982846147c1565b9150819050949350505050565b60006148b28286614844565b91506148be82856147c1565b91506148ca82846147c1565b9150819050949350505050565b7f20207b226e616d65223a225261696e626f7720546f6b656e2220202c00000000600082015250565b600061490d601c836147b6565b9150614918826148d7565b601c82019050919050565b7f20226465736372697074696f6e223a2241207370656369616c20746f6b656e2060008201527f796f757220636175736520746f20737570706f72742075732220202c00000000602082015250565b600061497f603c836147b6565b915061498a82614923565b603c82019050919050565b7f202022696d616765223a2022646174613a696d6167652f7376672b786d6c3b6260008201527f61736536342c2000000000000000000000000000000000000000000000000000602082015250565b60006149f16027836147b6565b91506149fc82614995565b602782019050919050565b7f20227d2000000000000000000000000000000000000000000000000000000000600082015250565b6000614a3d6004836147b6565b9150614a4882614a07565b600482019050919050565b6000614a5e82614900565b9150614a6982614972565b9150614a74826149e4565b9150614a808284614844565b9150614a8b82614a30565b915081905092915050565b7f646174613a6170706c69636174696f6e2f6a736f6e3b6261736536342c000000600082015250565b6000614acc601d836147b6565b9150614ad782614a96565b601d82019050919050565b6000614aed82614abf565b9150614af98284614844565b915081905092915050565b6000614b0f82613338565b9150614b1a83613338565b9250828201905080821115614b3257614b31614675565b5b92915050565b6000614b448285614844565b9150614b508284614844565b91508190509392505050565b7f4552433732313a207472616e736665722066726f6d20696e636f72726563742060008201527f6f776e6572000000000000000000000000000000000000000000000000000000602082015250565b6000614bb8602583613291565b9150614bc382614b5c565b604082019050919050565b60006020820190508181036000830152614be781614bab565b9050919050565b7f4552433732313a207472616e7366657220746f20746865207a65726f2061646460008201527f7265737300000000000000000000000000000000000000000000000000000000602082015250565b6000614c4a602483613291565b9150614c5582614bee565b604082019050919050565b60006020820190508181036000830152614c7981614c3d565b9050919050565b7f4552433732313a20617070726f766520746f2063616c6c657200000000000000600082015250565b6000614cb6601983613291565b9150614cc182614c80565b602082019050919050565b60006020820190508181036000830152614ce581614ca9565b9050919050565b7f4552433732313a207472616e7366657220746f206e6f6e20455243373231526560008201527f63656976657220696d706c656d656e7465720000000000000000000000000000602082015250565b6000614d48603283613291565b9150614d5382614cec565b604082019050919050565b60006020820190508181036000830152614d7781614d3b565b9050919050565b7f4552433732313a206d696e7420746f20746865207a65726f2061646472657373600082015250565b6000614db4602083613291565b9150614dbf82614d7e565b602082019050919050565b60006020820190508181036000830152614de381614da7565b9050919050565b7f4552433732313a20746f6b656e20616c7265616479206d696e74656400000000600082015250565b6000614e20601c83613291565b9150614e2b82614dea565b602082019050919050565b60006020820190508181036000830152614e4f81614e13565b9050919050565b7f4e487b7100000000000000000000000000000000000000000000000000000000600052601260045260246000fd5b6000614e9082613338565b9150614e9b83613338565b925082614eab57614eaa614e56565b5b828204905092915050565b6000614ec182613338565b9150614ecc83613338565b9250828202614eda81613338565b91508282048414831517614ef157614ef0614675565b5b5092915050565b7f45524337323155524953746f726167653a2055524920736574206f66206e6f6e60008201527f6578697374656e7420746f6b656e000000000000000000000000000000000000602082015250565b6000614f54602e83613291565b9150614f5f82614ef8565b604082019050919050565b60006020820190508181036000830152614f8381614f47565b9050919050565b6000614f9582613338565b9150614fa083613338565b9250828203905081811115614fb857614fb7614675565b5b92915050565b600081519050919050565b600082825260208201905092915050565b6000614fe582614fbe565b614fef8185614fc9565b9350614fff8185602086016132a2565b615008816132cc565b840191505092915050565b600060808201905061502860008301876133cd565b61503560208301866133cd565b6150426040830185613607565b81810360608301526150548184614fda565b905095945050505050565b60008151905061506e816131f7565b92915050565b60006020828403121561508a576150896131c1565b5b60006150988482850161505f565b9150509291505056fe4142434445464748494a4b4c4d4e4f505152535455565758595a6162636465666768696a6b6c6d6e6f707172737475767778797a303132333435363738392b2fa26469706673582212208b3716e416c0703826fea2f885022bc4cebc3ab5f1466b8cecc7b52c8700e81a64736f6c634300081100333c2f747370616e3e3c2f746578743e3c2f673e3c67207472616e73666f726d3d226d61747269782831203020302031203732392e3038203934362e38392922207374796c653d22222069643d2261316230616438622d663464622d343532642d393361382d6331646234613737626635662220203e3c7465787420786d6c3a73706163653d2270726573657276652220666f6e742d66616d696c793d22416c6567726579612220666f6e742d73697a653d2238302220666f6e742d7374796c653d226e6f726d616c2220666f6e742d7765696768743d2237303022207374796c653d227374726f6b653a206e6f6e653b207374726f6b652d77696474683a20313b207374726f6b652d6461736861727261793a206e6f6e653b207374726f6b652d6c696e656361703a20627574743b207374726f6b652d646173686f66667365743a20303b207374726f6b652d6c696e656a6f696e3a206d697465723b207374726f6b652d6d697465726c696d69743a20343b2066696c6c3a207267622832382c37302c3437293b2066696c6c2d72756c653a206e6f6e7a65726f3b206f7061636974793a20313b2077686974652d73706163653a207072653b22203e3c747370616e20783d222d3233302e35322220793d2232352e313322203e2a43726f776446756e642a3c2f747370616e3e3c2f746578743e3c2f673e3c2f7376673e3c73766720786d6c6e733d22687474703a2f2f7777772e77332e6f72672f323030302f7376672220786d6c6e733a786c696e6b3d22687474703a2f2f7777772e77332e6f72672f313939392f786c696e6b222076657273696f6e3d22312e31222077696474683d223130383022206865696768743d2231303830222076696577426f783d22302030203130383020313038302220786d6c3a73706163653d227072657365727665223e3c67207472616e73666f726d3d226d61747269782831203020302031203534302035343029222069643d2231656334326439322d646364612d343837612d623861342d32356634613261303839626222203e3c2f673e3c67207472616e73666f726d3d226d61747269782831203020302031203534302035343029222069643d2266393430643839312d363135632d343232382d396666632d6533633239613033303739392220203e3c72656374207374796c653d227374726f6b653a206e6f6e653b207374726f6b652d77696474683a20313b207374726f6b652d6461736861727261793a206e6f6e653b207374726f6b652d6c696e656361703a20627574743b207374726f6b652d646173686f66667365743a20303b207374726f6b652d6c696e656a6f696e3a206d697465723b207374726f6b652d6d697465726c696d69743a20343b2066696c6c3a207267622836382c3136392c313732293b2066696c6c2d72756c653a206e6f6e7a65726f3b206f7061636974793a20313b2220766563746f722d6566666563743d226e6f6e2d7363616c696e672d7374726f6b65222020783d222d3534302220793d222d353430222072783d2230222072793d2230222077696474683d223130383022206865696768743d223130383022202f3e3c2f673e3c67207472616e73666f726d3d226d6174726978283120302030203120353430203438372e33382922207374796c653d22222069643d2266666134653661362d653033322d346235632d383830662d6431386335363761393339652220203e3c7465787420786d6c3a73706163653d2270726573657276652220666f6e742d66616d696c793d22416c6567726579612220666f6e742d73697a653d2238302220666f6e742d7374796c653d226e6f726d616c2220666f6e742d7765696768743d2239303022207374796c653d227374726f6b653a206e6f6e653b207374726f6b652d77696474683a20313b207374726f6b652d6461736861727261793a206e6f6e653b207374726f6b652d6c696e656361703a20627574743b207374726f6b652d646173686f66667365743a20303b207374726f6b652d6c696e656a6f696e3a206d697465723b207374726f6b652d6d697465726c696d69743a20343b2066696c6c3a207267622831362c35302c313131293b2066696c6c2d72756c653a206e6f6e7a65726f3b206f7061636974793a20313b2077686974652d73706163653a207072653b22203e3c747370616e20783d222d35352220793d2232352e313322203e233c2f747370616e3e3c2f746578743e3c2f673e3c67207472616e73666f726d3d226d61747269782831203020302031203232372e31203131352e35312922207374796c653d22222069643d2231323839363934312d346364622d343931622d623030312d6362616633373332393965342220203e3c7465787420786d6c3a73706163653d2270726573657276652220666f6e742d66616d696c793d22416c6567726579612220666f6e742d73697a653d2238302220666f6e742d7374796c653d226e6f726d616c2220666f6e742d7765696768743d2237303022207374796c653d227374726f6b653a206e6f6e653b207374726f6b652d77696474683a20313b207374726f6b652d6461736861727261793a206e6f6e653b207374726f6b652d6c696e656361703a20627574743b207374726f6b652d646173686f66667365743a20303b207374726f6b652d6c696e656a6f696e3a206d697465723b207374726f6b652d6d697465726c696d69743a20343b2066696c6c3a20726762283231382c3233322c323330293b2066696c6c2d72756c653a206e6f6e7a65726f3b206f7061636974793a20313b2077686974652d73706163653a207072653b22203e3c747370616e20783d222d3136392e362220793d2232352e313322203e",
  "linkReferences": {},
  "deployedLinkReferences": {}
}